{
  "contracts/Crowdfunding.sol": {
    "Crowdfunding": {
      "abi": [
        {
          "inputs": [],
          "stateMutability": "nonpayable",
          "type": "constructor"
        },
        {
          "anonymous": false,
          "inputs": [
            {
              "indexed": false,
              "internalType": "string",
              "name": "_title",
              "type": "string"
            },
            {
              "indexed": false,
              "internalType": "string",
              "name": "_description",
              "type": "string"
            },
            {
              "indexed": false,
              "internalType": "address",
              "name": "_benefactor",
              "type": "address"
            },
            {
              "indexed": false,
              "internalType": "uint256",
              "name": "_goal",
              "type": "uint256"
            },
            {
              "indexed": false,
              "internalType": "uint256",
              "name": "_duration",
              "type": "uint256"
            }
          ],
          "name": "CampaignCreated",
          "type": "event"
        },
        {
          "anonymous": false,
          "inputs": [
            {
              "components": [
                {
                  "internalType": "string",
                  "name": "title",
                  "type": "string"
                },
                {
                  "internalType": "string",
                  "name": "description",
                  "type": "string"
                },
                {
                  "internalType": "address",
                  "name": "benefactor",
                  "type": "address"
                },
                {
                  "internalType": "uint256",
                  "name": "goal",
                  "type": "uint256"
                },
                {
                  "internalType": "uint256",
                  "name": "deadline",
                  "type": "uint256"
                },
                {
                  "internalType": "uint256",
                  "name": "amountRaised",
                  "type": "uint256"
                }
              ],
              "indexed": false,
              "internalType": "struct Crowdfunding.Campaign",
              "name": "selectedCampaign",
              "type": "tuple"
            },
            {
              "indexed": false,
              "internalType": "uint256",
              "name": "amountSentToBenefactor",
              "type": "uint256"
            },
            {
              "indexed": false,
              "internalType": "uint256",
              "name": "targetAmount",
              "type": "uint256"
            }
          ],
          "name": "CampaignEnded",
          "type": "event"
        },
        {
          "anonymous": false,
          "inputs": [
            {
              "indexed": false,
              "internalType": "uint256",
              "name": "_campainId",
              "type": "uint256"
            },
            {
              "indexed": false,
              "internalType": "uint256",
              "name": "_amount",
              "type": "uint256"
            }
          ],
          "name": "DonationReceived",
          "type": "event"
        },
        {
          "inputs": [
            {
              "internalType": "uint256",
              "name": "",
              "type": "uint256"
            }
          ],
          "name": "campaigns",
          "outputs": [
            {
              "internalType": "string",
              "name": "title",
              "type": "string"
            },
            {
              "internalType": "string",
              "name": "description",
              "type": "string"
            },
            {
              "internalType": "address",
              "name": "benefactor",
              "type": "address"
            },
            {
              "internalType": "uint256",
              "name": "goal",
              "type": "uint256"
            },
            {
              "internalType": "uint256",
              "name": "deadline",
              "type": "uint256"
            },
            {
              "internalType": "uint256",
              "name": "amountRaised",
              "type": "uint256"
            }
          ],
          "stateMutability": "view",
          "type": "function"
        },
        {
          "inputs": [
            {
              "internalType": "uint256",
              "name": "",
              "type": "uint256"
            }
          ],
          "name": "campaingnsIds",
          "outputs": [
            {
              "internalType": "uint256",
              "name": "",
              "type": "uint256"
            }
          ],
          "stateMutability": "view",
          "type": "function"
        },
        {
          "inputs": [
            {
              "internalType": "string",
              "name": "_title",
              "type": "string"
            },
            {
              "internalType": "string",
              "name": "_description",
              "type": "string"
            },
            {
              "internalType": "address",
              "name": "_benefactor",
              "type": "address"
            },
            {
              "internalType": "uint256",
              "name": "_goal",
              "type": "uint256"
            },
            {
              "internalType": "uint256",
              "name": "_duration",
              "type": "uint256"
            }
          ],
          "name": "createCampaign",
          "outputs": [
            {
              "components": [
                {
                  "internalType": "string",
                  "name": "title",
                  "type": "string"
                },
                {
                  "internalType": "string",
                  "name": "description",
                  "type": "string"
                },
                {
                  "internalType": "address",
                  "name": "benefactor",
                  "type": "address"
                },
                {
                  "internalType": "uint256",
                  "name": "goal",
                  "type": "uint256"
                },
                {
                  "internalType": "uint256",
                  "name": "deadline",
                  "type": "uint256"
                },
                {
                  "internalType": "uint256",
                  "name": "amountRaised",
                  "type": "uint256"
                }
              ],
              "internalType": "struct Crowdfunding.Campaign",
              "name": "",
              "type": "tuple"
            }
          ],
          "stateMutability": "nonpayable",
          "type": "function"
        },
        {
          "inputs": [
            {
              "internalType": "uint256",
              "name": "_campaignId",
              "type": "uint256"
            }
          ],
          "name": "donate",
          "outputs": [
            {
              "components": [
                {
                  "internalType": "string",
                  "name": "title",
                  "type": "string"
                },
                {
                  "internalType": "string",
                  "name": "description",
                  "type": "string"
                },
                {
                  "internalType": "address",
                  "name": "benefactor",
                  "type": "address"
                },
                {
                  "internalType": "uint256",
                  "name": "goal",
                  "type": "uint256"
                },
                {
                  "internalType": "uint256",
                  "name": "deadline",
                  "type": "uint256"
                },
                {
                  "internalType": "uint256",
                  "name": "amountRaised",
                  "type": "uint256"
                }
              ],
              "internalType": "struct Crowdfunding.Campaign",
              "name": "",
              "type": "tuple"
            }
          ],
          "stateMutability": "payable",
          "type": "function"
        },
        {
          "inputs": [
            {
              "internalType": "uint256",
              "name": "_campaignId",
              "type": "uint256"
            }
          ],
          "name": "endCampaign",
          "outputs": [
            {
              "components": [
                {
                  "internalType": "string",
                  "name": "title",
                  "type": "string"
                },
                {
                  "internalType": "string",
                  "name": "description",
                  "type": "string"
                },
                {
                  "internalType": "address",
                  "name": "benefactor",
                  "type": "address"
                },
                {
                  "internalType": "uint256",
                  "name": "goal",
                  "type": "uint256"
                },
                {
                  "internalType": "uint256",
                  "name": "deadline",
                  "type": "uint256"
                },
                {
                  "internalType": "uint256",
                  "name": "amountRaised",
                  "type": "uint256"
                }
              ],
              "internalType": "struct Crowdfunding.Campaign",
              "name": "",
              "type": "tuple"
            }
          ],
          "stateMutability": "payable",
          "type": "function"
        },
        {
          "inputs": [],
          "name": "owner",
          "outputs": [
            {
              "internalType": "address",
              "name": "",
              "type": "address"
            }
          ],
          "stateMutability": "view",
          "type": "function"
        },
        {
          "inputs": [],
          "name": "withdrawLeftoverFunds",
          "outputs": [],
          "stateMutability": "payable",
          "type": "function"
        }
      ],
      "evm": {
        "bytecode": {
          "linkReferences": {},
          "object": "608060405234801561001057600080fd5b50336000806101000a81548173ffffffffffffffffffffffffffffffffffffffff021916908373ffffffffffffffffffffffffffffffffffffffff160217905550611bfe806100606000396000f3fe6080604052600436106100705760003560e01c80639304d1241161004e5780639304d124146100ec578063dd0408ae14610129578063f14faf6f14610159578063fd34961d1461018957610070565b8063141961bc146100755780632bd71681146100b75780638da5cb5b146100c1575b600080fd5b34801561008157600080fd5b5061009c60048036038101906100979190610d1c565b6101c6565b6040516100ae96959493929190610e29565b60405180910390f35b6100bf610332565b005b3480156100cd57600080fd5b506100d661046c565b6040516100e39190610e98565b60405180910390f35b3480156100f857600080fd5b50610113600480360381019061010e9190611014565b610490565b60405161012091906111bf565b60405180910390f35b610143600480360381019061013e9190610d1c565b61063f565b60405161015091906111bf565b60405180910390f35b610173600480360381019061016e9190610d1c565b6109ba565b60405161018091906111bf565b60405180910390f35b34801561019557600080fd5b506101b060048036038101906101ab9190610d1c565b610c62565b6040516101bd91906111e1565b60405180910390f35b60016020528060005260406000206000915090508060000180546101e99061122b565b80601f01602080910402602001604051908101604052809291908181526020018280546102159061122b565b80156102625780601f1061023757610100808354040283529160200191610262565b820191906000526020600020905b81548152906001019060200180831161024557829003601f168201915b5050505050908060010180546102779061122b565b80601f01602080910402602001604051908101604052809291908181526020018280546102a39061122b565b80156102f05780601f106102c5576101008083540402835291602001916102f0565b820191906000526020600020905b8154815290600101906020018083116102d357829003601f168201915b5050505050908060020160009054906101000a900473ffffffffffffffffffffffffffffffffffffffff16908060030154908060040154908060050154905086565b60008054906101000a900473ffffffffffffffffffffffffffffffffffffffff1673ffffffffffffffffffffffffffffffffffffffff163373ffffffffffffffffffffffffffffffffffffffff16146103c0576040517f08c379a00000000000000000000000000000000000000000000000000000000081526004016103b7906112a8565b60405180910390fd5b60004711610403576040517f08c379a00000000000000000000000000000000000000000000000000000000081526004016103fa90611314565b60405180910390fd5b60008054906101000a900473ffffffffffffffffffffffffffffffffffffffff1673ffffffffffffffffffffffffffffffffffffffff166108fc479081150290604051600060405180830381858888f19350505050158015610469573d6000803e3d6000fd5b50565b60008054906101000a900473ffffffffffffffffffffffffffffffffffffffff1681565b610498610c86565b600083116104db576040517f08c379a00000000000000000000000000000000000000000000000000000000081526004016104d2906113a6565b60405180910390fd5b60006040518060c001604052808881526020018781526020018673ffffffffffffffffffffffffffffffffffffffff168152602001858152602001844261052291906113f5565b81526020016000815250905060006002805490509050600060018261054791906113f5565b90508260016000838152602001908152602001600020600082015181600001908161057291906115d5565b50602082015181600101908161058891906115d5565b5060408201518160020160006101000a81548173ffffffffffffffffffffffffffffffffffffffff021916908373ffffffffffffffffffffffffffffffffffffffff160217905550606082015181600301556080820151816004015560a082015181600501559050507f3ddbcf1fe0fa740f9c992bb5d8c878f8546957f4f88824e77fb7af3e8079ea3889898989896040516106289594939291906116a7565b60405180910390a182935050505095945050505050565b610647610c86565b600060016000848152602001908152602001600020905080600401544210156106a5576040517f08c379a000000000000000000000000000000000000000000000000000000000815260040161069c90611754565b60405180910390fd5b60008160050154116106ec576040517f08c379a00000000000000000000000000000000000000000000000000000000081526004016106e3906117e6565b60405180910390fd5b60008160020160009054906101000a900473ffffffffffffffffffffffffffffffffffffffff1673ffffffffffffffffffffffffffffffffffffffff16826005015460405161073a90611837565b60006040518083038185875af1925050503d8060008114610777576040519150601f19603f3d011682016040523d82523d6000602084013e61077c565b606091505b50509050806107c0576040517f08c379a00000000000000000000000000000000000000000000000000000000081526004016107b790611898565b60405180910390fd5b7f4145bbf17e3ba8f449d77eb598caca0f4bf3984e065fd1902a7e7dffbd493b4e82836005015484600301546040516107fb93929190611a63565b60405180910390a160008260050181905550816040518060c00160405290816000820180546108299061122b565b80601f01602080910402602001604051908101604052809291908181526020018280546108559061122b565b80156108a25780601f10610877576101008083540402835291602001916108a2565b820191906000526020600020905b81548152906001019060200180831161088557829003601f168201915b505050505081526020016001820180546108bb9061122b565b80601f01602080910402602001604051908101604052809291908181526020018280546108e79061122b565b80156109345780601f1061090957610100808354040283529160200191610934565b820191906000526020600020905b81548152906001019060200180831161091757829003601f168201915b505050505081526020016002820160009054906101000a900473ffffffffffffffffffffffffffffffffffffffff1673ffffffffffffffffffffffffffffffffffffffff1673ffffffffffffffffffffffffffffffffffffffff168152602001600382015481526020016004820154815260200160058201548152505092505050919050565b6109c2610c86565b600060016000848152602001908152602001600020905060003411610a1c576040517f08c379a0000000000000000000000000000000000000000000000000000000008152600401610a1390611b13565b60405180910390fd5b80600401544210610a62576040517f08c379a0000000000000000000000000000000000000000000000000000000008152600401610a5990611b7f565b60405180910390fd5b34816005016000828254610a7691906113f5565b925050819055507f7f33cc4ff9ec616b18266ccfe9acb607a1f8b1fb7e411b9a9b9dc03df1fb548a8334604051610aae929190611b9f565b60405180910390a1806040518060c0016040529081600082018054610ad29061122b565b80601f0160208091040260200160405190810160405280929190818152602001828054610afe9061122b565b8015610b4b5780601f10610b2057610100808354040283529160200191610b4b565b820191906000526020600020905b815481529060010190602001808311610b2e57829003601f168201915b50505050508152602001600182018054610b649061122b565b80601f0160208091040260200160405190810160405280929190818152602001828054610b909061122b565b8015610bdd5780601f10610bb257610100808354040283529160200191610bdd565b820191906000526020600020905b815481529060010190602001808311610bc057829003601f168201915b505050505081526020016002820160009054906101000a900473ffffffffffffffffffffffffffffffffffffffff1673ffffffffffffffffffffffffffffffffffffffff1673ffffffffffffffffffffffffffffffffffffffff1681526020016003820154815260200160048201548152602001600582015481525050915050919050565b60028181548110610c7257600080fd5b906000526020600020016000915090505481565b6040518060c001604052806060815260200160608152602001600073ffffffffffffffffffffffffffffffffffffffff1681526020016000815260200160008152602001600081525090565b6000604051905090565b600080fd5b600080fd5b6000819050919050565b610cf981610ce6565b8114610d0457600080fd5b50565b600081359050610d1681610cf0565b92915050565b600060208284031215610d3257610d31610cdc565b5b6000610d4084828501610d07565b91505092915050565b600081519050919050565b600082825260208201905092915050565b60005b83811015610d83578082015181840152602081019050610d68565b60008484015250505050565b6000601f19601f8301169050919050565b6000610dab82610d49565b610db58185610d54565b9350610dc5818560208601610d65565b610dce81610d8f565b840191505092915050565b600073ffffffffffffffffffffffffffffffffffffffff82169050919050565b6000610e0482610dd9565b9050919050565b610e1481610df9565b82525050565b610e2381610ce6565b82525050565b600060c0820190508181036000830152610e438189610da0565b90508181036020830152610e578188610da0565b9050610e666040830187610e0b565b610e736060830186610e1a565b610e806080830185610e1a565b610e8d60a0830184610e1a565b979650505050505050565b6000602082019050610ead6000830184610e0b565b92915050565b600080fd5b600080fd5b7f4e487b7100000000000000000000000000000000000000000000000000000000600052604160045260246000fd5b610ef582610d8f565b810181811067ffffffffffffffff82111715610f1457610f13610ebd565b5b80604052505050565b6000610f27610cd2565b9050610f338282610eec565b919050565b600067ffffffffffffffff821115610f5357610f52610ebd565b5b610f5c82610d8f565b9050602081019050919050565b82818337600083830152505050565b6000610f8b610f8684610f38565b610f1d565b905082815260208101848484011115610fa757610fa6610eb8565b5b610fb2848285610f69565b509392505050565b600082601f830112610fcf57610fce610eb3565b5b8135610fdf848260208601610f78565b91505092915050565b610ff181610df9565b8114610ffc57600080fd5b50565b60008135905061100e81610fe8565b92915050565b600080600080600060a086880312156110305761102f610cdc565b5b600086013567ffffffffffffffff81111561104e5761104d610ce1565b5b61105a88828901610fba565b955050602086013567ffffffffffffffff81111561107b5761107a610ce1565b5b61108788828901610fba565b945050604061109888828901610fff565b93505060606110a988828901610d07565b92505060806110ba88828901610d07565b9150509295509295909350565b600082825260208201905092915050565b60006110e382610d49565b6110ed81856110c7565b93506110fd818560208601610d65565b61110681610d8f565b840191505092915050565b61111a81610df9565b82525050565b61112981610ce6565b82525050565b600060c083016000830151848203600086015261114c82826110d8565b9150506020830151848203602086015261116682826110d8565b915050604083015161117b6040860182611111565b50606083015161118e6060860182611120565b5060808301516111a16080860182611120565b5060a08301516111b460a0860182611120565b508091505092915050565b600060208201905081810360008301526111d9818461112f565b905092915050565b60006020820190506111f66000830184610e1a565b92915050565b7f4e487b7100000000000000000000000000000000000000000000000000000000600052602260045260246000fd5b6000600282049050600182168061124357607f821691505b602082108103611256576112556111fc565b5b50919050565b7f4e6f742074686520636f6e7472616374206f776e657200000000000000000000600082015250565b6000611292601683610d54565b915061129d8261125c565b602082019050919050565b600060208201905081810360008301526112c181611285565b9050919050565b7f4e6f2066756e647320746f207769746864726177000000000000000000000000600082015250565b60006112fe601483610d54565b9150611309826112c8565b602082019050919050565b6000602082019050818103600083015261132d816112f1565b9050919050565b7f476f616c2073686f756c642062652067726561746572207468616e207a65726f60008201527f2e00000000000000000000000000000000000000000000000000000000000000602082015250565b6000611390602183610d54565b915061139b82611334565b604082019050919050565b600060208201905081810360008301526113bf81611383565b9050919050565b7f4e487b7100000000000000000000000000000000000000000000000000000000600052601160045260246000fd5b600061140082610ce6565b915061140b83610ce6565b9250828201905080821115611423576114226113c6565b5b92915050565b60008190508160005260206000209050919050565b60006020601f8301049050919050565b600082821b905092915050565b60006008830261148b7fffffffffffffffffffffffffffffffffffffffffffffffffffffffffffffffff8261144e565b611495868361144e565b95508019841693508086168417925050509392505050565b6000819050919050565b60006114d26114cd6114c884610ce6565b6114ad565b610ce6565b9050919050565b6000819050919050565b6114ec836114b7565b6115006114f8826114d9565b84845461145b565b825550505050565b600090565b611515611508565b6115208184846114e3565b505050565b5b818110156115445761153960008261150d565b600181019050611526565b5050565b601f8211156115895761155a81611429565b6115638461143e565b81016020851015611572578190505b61158661157e8561143e565b830182611525565b50505b505050565b600082821c905092915050565b60006115ac6000198460080261158e565b1980831691505092915050565b60006115c5838361159b565b9150826002028217905092915050565b6115de82610d49565b67ffffffffffffffff8111156115f7576115f6610ebd565b5b611601825461122b565b61160c828285611548565b600060209050601f83116001811461163f576000841561162d578287015190505b61163785826115b9565b86555061169f565b601f19841661164d86611429565b60005b8281101561167557848901518255600182019150602085019450602081019050611650565b86831015611692578489015161168e601f89168261159b565b8355505b6001600288020188555050505b505050505050565b600060a08201905081810360008301526116c18188610da0565b905081810360208301526116d58187610da0565b90506116e46040830186610e0b565b6116f16060830185610e1a565b6116fe6080830184610e1a565b9695505050505050565b7f43616d706169676e206973207374696c6c206f6e676f696e6700000000000000600082015250565b600061173e601983610d54565b915061174982611708565b602082019050919050565b6000602082019050818103600083015261176d81611731565b9050919050565b7f43616d706169676e20616c726561647920656e646564206f72206e6f2066756e60008201527f6473207261697365640000000000000000000000000000000000000000000000602082015250565b60006117d0602983610d54565b91506117db82611774565b604082019050919050565b600060208201905081810360008301526117ff816117c3565b9050919050565b600081905092915050565b50565b6000611821600083611806565b915061182c82611811565b600082019050919050565b600061184282611814565b9150819050919050565b7f5472616e7366657220746f2062656e65666163746f72206661696c65642e0000600082015250565b6000611882601e83610d54565b915061188d8261184c565b602082019050919050565b600060208201905081810360008301526118b181611875565b9050919050565b600081546118c58161122b565b6118cf81866110c7565b945060018216600081146118ea576001811461190057611933565b60ff198316865281151560200286019350611933565b61190985611429565b60005b8381101561192b5781548189015260018201915060208101905061190c565b808801955050505b50505092915050565b60008160001c9050919050565b600073ffffffffffffffffffffffffffffffffffffffff82169050919050565b600061197c6119778361193c565b611949565b9050919050565b6000819050919050565b60006119a061199b8361193c565b611983565b9050919050565b600060c08301600080840185830360008701526119c483826118b8565b9250506001840185830360208701526119dd83826118b8565b925050600284015490506119f081611969565b6119fd6040870182611111565b5060038401549050611a0e8161198d565b611a1b6060870182611120565b5060048401549050611a2c8161198d565b611a396080870182611120565b5060058401549050611a4a8161198d565b611a5760a0870182611120565b50819250505092915050565b60006060820190508181036000830152611a7d81866119a7565b9050611a8c6020830185610e1a565b611a996040830184610e1a565b949350505050565b7f446f6e6174696f6e20616d6f756e74206d75737420626520677265617465722060008201527f7468616e207a65726f0000000000000000000000000000000000000000000000602082015250565b6000611afd602983610d54565b9150611b0882611aa1565b604082019050919050565b60006020820190508181036000830152611b2c81611af0565b9050919050565b7f43616d706169676e2068617320616c726561647920656e646564000000000000600082015250565b6000611b69601a83610d54565b9150611b7482611b33565b602082019050919050565b60006020820190508181036000830152611b9881611b5c565b9050919050565b6000604082019050611bb46000830185610e1a565b611bc16020830184610e1a565b939250505056fea2646970667358221220e7f1be0a082fb834847ee07b319ea92965612513f40532926be79ca7e64dc52964736f6c63430008180033",
          "opcodes": "PUSH1 0x80 PUSH1 0x40 MSTORE CALLVALUE DUP1 ISZERO PUSH2 0x10 JUMPI PUSH1 0x0 DUP1 REVERT JUMPDEST POP CALLER PUSH1 0x0 DUP1 PUSH2 0x100 EXP DUP2 SLOAD DUP2 PUSH20 0xFFFFFFFFFFFFFFFFFFFFFFFFFFFFFFFFFFFFFFFF MUL NOT AND SWAP1 DUP4 PUSH20 0xFFFFFFFFFFFFFFFFFFFFFFFFFFFFFFFFFFFFFFFF AND MUL OR SWAP1 SSTORE POP PUSH2 0x1BFE DUP1 PUSH2 0x60 PUSH1 0x0 CODECOPY PUSH1 0x0 RETURN INVALID PUSH1 0x80 PUSH1 0x40 MSTORE PUSH1 0x4 CALLDATASIZE LT PUSH2 0x70 JUMPI PUSH1 0x0 CALLDATALOAD PUSH1 0xE0 SHR DUP1 PUSH4 0x9304D124 GT PUSH2 0x4E JUMPI DUP1 PUSH4 0x9304D124 EQ PUSH2 0xEC JUMPI DUP1 PUSH4 0xDD0408AE EQ PUSH2 0x129 JUMPI DUP1 PUSH4 0xF14FAF6F EQ PUSH2 0x159 JUMPI DUP1 PUSH4 0xFD34961D EQ PUSH2 0x189 JUMPI PUSH2 0x70 JUMP JUMPDEST DUP1 PUSH4 0x141961BC EQ PUSH2 0x75 JUMPI DUP1 PUSH4 0x2BD71681 EQ PUSH2 0xB7 JUMPI DUP1 PUSH4 0x8DA5CB5B EQ PUSH2 0xC1 JUMPI JUMPDEST PUSH1 0x0 DUP1 REVERT JUMPDEST CALLVALUE DUP1 ISZERO PUSH2 0x81 JUMPI PUSH1 0x0 DUP1 REVERT JUMPDEST POP PUSH2 0x9C PUSH1 0x4 DUP1 CALLDATASIZE SUB DUP2 ADD SWAP1 PUSH2 0x97 SWAP2 SWAP1 PUSH2 0xD1C JUMP JUMPDEST PUSH2 0x1C6 JUMP JUMPDEST PUSH1 0x40 MLOAD PUSH2 0xAE SWAP7 SWAP6 SWAP5 SWAP4 SWAP3 SWAP2 SWAP1 PUSH2 0xE29 JUMP JUMPDEST PUSH1 0x40 MLOAD DUP1 SWAP2 SUB SWAP1 RETURN JUMPDEST PUSH2 0xBF PUSH2 0x332 JUMP JUMPDEST STOP JUMPDEST CALLVALUE DUP1 ISZERO PUSH2 0xCD JUMPI PUSH1 0x0 DUP1 REVERT JUMPDEST POP PUSH2 0xD6 PUSH2 0x46C JUMP JUMPDEST PUSH1 0x40 MLOAD PUSH2 0xE3 SWAP2 SWAP1 PUSH2 0xE98 JUMP JUMPDEST PUSH1 0x40 MLOAD DUP1 SWAP2 SUB SWAP1 RETURN JUMPDEST CALLVALUE DUP1 ISZERO PUSH2 0xF8 JUMPI PUSH1 0x0 DUP1 REVERT JUMPDEST POP PUSH2 0x113 PUSH1 0x4 DUP1 CALLDATASIZE SUB DUP2 ADD SWAP1 PUSH2 0x10E SWAP2 SWAP1 PUSH2 0x1014 JUMP JUMPDEST PUSH2 0x490 JUMP JUMPDEST PUSH1 0x40 MLOAD PUSH2 0x120 SWAP2 SWAP1 PUSH2 0x11BF JUMP JUMPDEST PUSH1 0x40 MLOAD DUP1 SWAP2 SUB SWAP1 RETURN JUMPDEST PUSH2 0x143 PUSH1 0x4 DUP1 CALLDATASIZE SUB DUP2 ADD SWAP1 PUSH2 0x13E SWAP2 SWAP1 PUSH2 0xD1C JUMP JUMPDEST PUSH2 0x63F JUMP JUMPDEST PUSH1 0x40 MLOAD PUSH2 0x150 SWAP2 SWAP1 PUSH2 0x11BF JUMP JUMPDEST PUSH1 0x40 MLOAD DUP1 SWAP2 SUB SWAP1 RETURN JUMPDEST PUSH2 0x173 PUSH1 0x4 DUP1 CALLDATASIZE SUB DUP2 ADD SWAP1 PUSH2 0x16E SWAP2 SWAP1 PUSH2 0xD1C JUMP JUMPDEST PUSH2 0x9BA JUMP JUMPDEST PUSH1 0x40 MLOAD PUSH2 0x180 SWAP2 SWAP1 PUSH2 0x11BF JUMP JUMPDEST PUSH1 0x40 MLOAD DUP1 SWAP2 SUB SWAP1 RETURN JUMPDEST CALLVALUE DUP1 ISZERO PUSH2 0x195 JUMPI PUSH1 0x0 DUP1 REVERT JUMPDEST POP PUSH2 0x1B0 PUSH1 0x4 DUP1 CALLDATASIZE SUB DUP2 ADD SWAP1 PUSH2 0x1AB SWAP2 SWAP1 PUSH2 0xD1C JUMP JUMPDEST PUSH2 0xC62 JUMP JUMPDEST PUSH1 0x40 MLOAD PUSH2 0x1BD SWAP2 SWAP1 PUSH2 0x11E1 JUMP JUMPDEST PUSH1 0x40 MLOAD DUP1 SWAP2 SUB SWAP1 RETURN JUMPDEST PUSH1 0x1 PUSH1 0x20 MSTORE DUP1 PUSH1 0x0 MSTORE PUSH1 0x40 PUSH1 0x0 KECCAK256 PUSH1 0x0 SWAP2 POP SWAP1 POP DUP1 PUSH1 0x0 ADD DUP1 SLOAD PUSH2 0x1E9 SWAP1 PUSH2 0x122B JUMP JUMPDEST DUP1 PUSH1 0x1F ADD PUSH1 0x20 DUP1 SWAP2 DIV MUL PUSH1 0x20 ADD PUSH1 0x40 MLOAD SWAP1 DUP2 ADD PUSH1 0x40 MSTORE DUP1 SWAP3 SWAP2 SWAP1 DUP2 DUP2 MSTORE PUSH1 0x20 ADD DUP3 DUP1 SLOAD PUSH2 0x215 SWAP1 PUSH2 0x122B JUMP JUMPDEST DUP1 ISZERO PUSH2 0x262 JUMPI DUP1 PUSH1 0x1F LT PUSH2 0x237 JUMPI PUSH2 0x100 DUP1 DUP4 SLOAD DIV MUL DUP4 MSTORE SWAP2 PUSH1 0x20 ADD SWAP2 PUSH2 0x262 JUMP JUMPDEST DUP3 ADD SWAP2 SWAP1 PUSH1 0x0 MSTORE PUSH1 0x20 PUSH1 0x0 KECCAK256 SWAP1 JUMPDEST DUP2 SLOAD DUP2 MSTORE SWAP1 PUSH1 0x1 ADD SWAP1 PUSH1 0x20 ADD DUP1 DUP4 GT PUSH2 0x245 JUMPI DUP3 SWAP1 SUB PUSH1 0x1F AND DUP3 ADD SWAP2 JUMPDEST POP POP POP POP POP SWAP1 DUP1 PUSH1 0x1 ADD DUP1 SLOAD PUSH2 0x277 SWAP1 PUSH2 0x122B JUMP JUMPDEST DUP1 PUSH1 0x1F ADD PUSH1 0x20 DUP1 SWAP2 DIV MUL PUSH1 0x20 ADD PUSH1 0x40 MLOAD SWAP1 DUP2 ADD PUSH1 0x40 MSTORE DUP1 SWAP3 SWAP2 SWAP1 DUP2 DUP2 MSTORE PUSH1 0x20 ADD DUP3 DUP1 SLOAD PUSH2 0x2A3 SWAP1 PUSH2 0x122B JUMP JUMPDEST DUP1 ISZERO PUSH2 0x2F0 JUMPI DUP1 PUSH1 0x1F LT PUSH2 0x2C5 JUMPI PUSH2 0x100 DUP1 DUP4 SLOAD DIV MUL DUP4 MSTORE SWAP2 PUSH1 0x20 ADD SWAP2 PUSH2 0x2F0 JUMP JUMPDEST DUP3 ADD SWAP2 SWAP1 PUSH1 0x0 MSTORE PUSH1 0x20 PUSH1 0x0 KECCAK256 SWAP1 JUMPDEST DUP2 SLOAD DUP2 MSTORE SWAP1 PUSH1 0x1 ADD SWAP1 PUSH1 0x20 ADD DUP1 DUP4 GT PUSH2 0x2D3 JUMPI DUP3 SWAP1 SUB PUSH1 0x1F AND DUP3 ADD SWAP2 JUMPDEST POP POP POP POP POP SWAP1 DUP1 PUSH1 0x2 ADD PUSH1 0x0 SWAP1 SLOAD SWAP1 PUSH2 0x100 EXP SWAP1 DIV PUSH20 0xFFFFFFFFFFFFFFFFFFFFFFFFFFFFFFFFFFFFFFFF AND SWAP1 DUP1 PUSH1 0x3 ADD SLOAD SWAP1 DUP1 PUSH1 0x4 ADD SLOAD SWAP1 DUP1 PUSH1 0x5 ADD SLOAD SWAP1 POP DUP7 JUMP JUMPDEST PUSH1 0x0 DUP1 SLOAD SWAP1 PUSH2 0x100 EXP SWAP1 DIV PUSH20 0xFFFFFFFFFFFFFFFFFFFFFFFFFFFFFFFFFFFFFFFF AND PUSH20 0xFFFFFFFFFFFFFFFFFFFFFFFFFFFFFFFFFFFFFFFF AND CALLER PUSH20 0xFFFFFFFFFFFFFFFFFFFFFFFFFFFFFFFFFFFFFFFF AND EQ PUSH2 0x3C0 JUMPI PUSH1 0x40 MLOAD PUSH32 0x8C379A000000000000000000000000000000000000000000000000000000000 DUP2 MSTORE PUSH1 0x4 ADD PUSH2 0x3B7 SWAP1 PUSH2 0x12A8 JUMP JUMPDEST PUSH1 0x40 MLOAD DUP1 SWAP2 SUB SWAP1 REVERT JUMPDEST PUSH1 0x0 SELFBALANCE GT PUSH2 0x403 JUMPI PUSH1 0x40 MLOAD PUSH32 0x8C379A000000000000000000000000000000000000000000000000000000000 DUP2 MSTORE PUSH1 0x4 ADD PUSH2 0x3FA SWAP1 PUSH2 0x1314 JUMP JUMPDEST PUSH1 0x40 MLOAD DUP1 SWAP2 SUB SWAP1 REVERT JUMPDEST PUSH1 0x0 DUP1 SLOAD SWAP1 PUSH2 0x100 EXP SWAP1 DIV PUSH20 0xFFFFFFFFFFFFFFFFFFFFFFFFFFFFFFFFFFFFFFFF AND PUSH20 0xFFFFFFFFFFFFFFFFFFFFFFFFFFFFFFFFFFFFFFFF AND PUSH2 0x8FC SELFBALANCE SWAP1 DUP2 ISZERO MUL SWAP1 PUSH1 0x40 MLOAD PUSH1 0x0 PUSH1 0x40 MLOAD DUP1 DUP4 SUB DUP2 DUP6 DUP9 DUP9 CALL SWAP4 POP POP POP POP ISZERO DUP1 ISZERO PUSH2 0x469 JUMPI RETURNDATASIZE PUSH1 0x0 DUP1 RETURNDATACOPY RETURNDATASIZE PUSH1 0x0 REVERT JUMPDEST POP JUMP JUMPDEST PUSH1 0x0 DUP1 SLOAD SWAP1 PUSH2 0x100 EXP SWAP1 DIV PUSH20 0xFFFFFFFFFFFFFFFFFFFFFFFFFFFFFFFFFFFFFFFF AND DUP2 JUMP JUMPDEST PUSH2 0x498 PUSH2 0xC86 JUMP JUMPDEST PUSH1 0x0 DUP4 GT PUSH2 0x4DB JUMPI PUSH1 0x40 MLOAD PUSH32 0x8C379A000000000000000000000000000000000000000000000000000000000 DUP2 MSTORE PUSH1 0x4 ADD PUSH2 0x4D2 SWAP1 PUSH2 0x13A6 JUMP JUMPDEST PUSH1 0x40 MLOAD DUP1 SWAP2 SUB SWAP1 REVERT JUMPDEST PUSH1 0x0 PUSH1 0x40 MLOAD DUP1 PUSH1 0xC0 ADD PUSH1 0x40 MSTORE DUP1 DUP9 DUP2 MSTORE PUSH1 0x20 ADD DUP8 DUP2 MSTORE PUSH1 0x20 ADD DUP7 PUSH20 0xFFFFFFFFFFFFFFFFFFFFFFFFFFFFFFFFFFFFFFFF AND DUP2 MSTORE PUSH1 0x20 ADD DUP6 DUP2 MSTORE PUSH1 0x20 ADD DUP5 TIMESTAMP PUSH2 0x522 SWAP2 SWAP1 PUSH2 0x13F5 JUMP JUMPDEST DUP2 MSTORE PUSH1 0x20 ADD PUSH1 0x0 DUP2 MSTORE POP SWAP1 POP PUSH1 0x0 PUSH1 0x2 DUP1 SLOAD SWAP1 POP SWAP1 POP PUSH1 0x0 PUSH1 0x1 DUP3 PUSH2 0x547 SWAP2 SWAP1 PUSH2 0x13F5 JUMP JUMPDEST SWAP1 POP DUP3 PUSH1 0x1 PUSH1 0x0 DUP4 DUP2 MSTORE PUSH1 0x20 ADD SWAP1 DUP2 MSTORE PUSH1 0x20 ADD PUSH1 0x0 KECCAK256 PUSH1 0x0 DUP3 ADD MLOAD DUP2 PUSH1 0x0 ADD SWAP1 DUP2 PUSH2 0x572 SWAP2 SWAP1 PUSH2 0x15D5 JUMP JUMPDEST POP PUSH1 0x20 DUP3 ADD MLOAD DUP2 PUSH1 0x1 ADD SWAP1 DUP2 PUSH2 0x588 SWAP2 SWAP1 PUSH2 0x15D5 JUMP JUMPDEST POP PUSH1 0x40 DUP3 ADD MLOAD DUP2 PUSH1 0x2 ADD PUSH1 0x0 PUSH2 0x100 EXP DUP2 SLOAD DUP2 PUSH20 0xFFFFFFFFFFFFFFFFFFFFFFFFFFFFFFFFFFFFFFFF MUL NOT AND SWAP1 DUP4 PUSH20 0xFFFFFFFFFFFFFFFFFFFFFFFFFFFFFFFFFFFFFFFF AND MUL OR SWAP1 SSTORE POP PUSH1 0x60 DUP3 ADD MLOAD DUP2 PUSH1 0x3 ADD SSTORE PUSH1 0x80 DUP3 ADD MLOAD DUP2 PUSH1 0x4 ADD SSTORE PUSH1 0xA0 DUP3 ADD MLOAD DUP2 PUSH1 0x5 ADD SSTORE SWAP1 POP POP PUSH32 0x3DDBCF1FE0FA740F9C992BB5D8C878F8546957F4F88824E77FB7AF3E8079EA38 DUP10 DUP10 DUP10 DUP10 DUP10 PUSH1 0x40 MLOAD PUSH2 0x628 SWAP6 SWAP5 SWAP4 SWAP3 SWAP2 SWAP1 PUSH2 0x16A7 JUMP JUMPDEST PUSH1 0x40 MLOAD DUP1 SWAP2 SUB SWAP1 LOG1 DUP3 SWAP4 POP POP POP POP SWAP6 SWAP5 POP POP POP POP POP JUMP JUMPDEST PUSH2 0x647 PUSH2 0xC86 JUMP JUMPDEST PUSH1 0x0 PUSH1 0x1 PUSH1 0x0 DUP5 DUP2 MSTORE PUSH1 0x20 ADD SWAP1 DUP2 MSTORE PUSH1 0x20 ADD PUSH1 0x0 KECCAK256 SWAP1 POP DUP1 PUSH1 0x4 ADD SLOAD TIMESTAMP LT ISZERO PUSH2 0x6A5 JUMPI PUSH1 0x40 MLOAD PUSH32 0x8C379A000000000000000000000000000000000000000000000000000000000 DUP2 MSTORE PUSH1 0x4 ADD PUSH2 0x69C SWAP1 PUSH2 0x1754 JUMP JUMPDEST PUSH1 0x40 MLOAD DUP1 SWAP2 SUB SWAP1 REVERT JUMPDEST PUSH1 0x0 DUP2 PUSH1 0x5 ADD SLOAD GT PUSH2 0x6EC JUMPI PUSH1 0x40 MLOAD PUSH32 0x8C379A000000000000000000000000000000000000000000000000000000000 DUP2 MSTORE PUSH1 0x4 ADD PUSH2 0x6E3 SWAP1 PUSH2 0x17E6 JUMP JUMPDEST PUSH1 0x40 MLOAD DUP1 SWAP2 SUB SWAP1 REVERT JUMPDEST PUSH1 0x0 DUP2 PUSH1 0x2 ADD PUSH1 0x0 SWAP1 SLOAD SWAP1 PUSH2 0x100 EXP SWAP1 DIV PUSH20 0xFFFFFFFFFFFFFFFFFFFFFFFFFFFFFFFFFFFFFFFF AND PUSH20 0xFFFFFFFFFFFFFFFFFFFFFFFFFFFFFFFFFFFFFFFF AND DUP3 PUSH1 0x5 ADD SLOAD PUSH1 0x40 MLOAD PUSH2 0x73A SWAP1 PUSH2 0x1837 JUMP JUMPDEST PUSH1 0x0 PUSH1 0x40 MLOAD DUP1 DUP4 SUB DUP2 DUP6 DUP8 GAS CALL SWAP3 POP POP POP RETURNDATASIZE DUP1 PUSH1 0x0 DUP2 EQ PUSH2 0x777 JUMPI PUSH1 0x40 MLOAD SWAP2 POP PUSH1 0x1F NOT PUSH1 0x3F RETURNDATASIZE ADD AND DUP3 ADD PUSH1 0x40 MSTORE RETURNDATASIZE DUP3 MSTORE RETURNDATASIZE PUSH1 0x0 PUSH1 0x20 DUP5 ADD RETURNDATACOPY PUSH2 0x77C JUMP JUMPDEST PUSH1 0x60 SWAP2 POP JUMPDEST POP POP SWAP1 POP DUP1 PUSH2 0x7C0 JUMPI PUSH1 0x40 MLOAD PUSH32 0x8C379A000000000000000000000000000000000000000000000000000000000 DUP2 MSTORE PUSH1 0x4 ADD PUSH2 0x7B7 SWAP1 PUSH2 0x1898 JUMP JUMPDEST PUSH1 0x40 MLOAD DUP1 SWAP2 SUB SWAP1 REVERT JUMPDEST PUSH32 0x4145BBF17E3BA8F449D77EB598CACA0F4BF3984E065FD1902A7E7DFFBD493B4E DUP3 DUP4 PUSH1 0x5 ADD SLOAD DUP5 PUSH1 0x3 ADD SLOAD PUSH1 0x40 MLOAD PUSH2 0x7FB SWAP4 SWAP3 SWAP2 SWAP1 PUSH2 0x1A63 JUMP JUMPDEST PUSH1 0x40 MLOAD DUP1 SWAP2 SUB SWAP1 LOG1 PUSH1 0x0 DUP3 PUSH1 0x5 ADD DUP2 SWAP1 SSTORE POP DUP2 PUSH1 0x40 MLOAD DUP1 PUSH1 0xC0 ADD PUSH1 0x40 MSTORE SWAP1 DUP2 PUSH1 0x0 DUP3 ADD DUP1 SLOAD PUSH2 0x829 SWAP1 PUSH2 0x122B JUMP JUMPDEST DUP1 PUSH1 0x1F ADD PUSH1 0x20 DUP1 SWAP2 DIV MUL PUSH1 0x20 ADD PUSH1 0x40 MLOAD SWAP1 DUP2 ADD PUSH1 0x40 MSTORE DUP1 SWAP3 SWAP2 SWAP1 DUP2 DUP2 MSTORE PUSH1 0x20 ADD DUP3 DUP1 SLOAD PUSH2 0x855 SWAP1 PUSH2 0x122B JUMP JUMPDEST DUP1 ISZERO PUSH2 0x8A2 JUMPI DUP1 PUSH1 0x1F LT PUSH2 0x877 JUMPI PUSH2 0x100 DUP1 DUP4 SLOAD DIV MUL DUP4 MSTORE SWAP2 PUSH1 0x20 ADD SWAP2 PUSH2 0x8A2 JUMP JUMPDEST DUP3 ADD SWAP2 SWAP1 PUSH1 0x0 MSTORE PUSH1 0x20 PUSH1 0x0 KECCAK256 SWAP1 JUMPDEST DUP2 SLOAD DUP2 MSTORE SWAP1 PUSH1 0x1 ADD SWAP1 PUSH1 0x20 ADD DUP1 DUP4 GT PUSH2 0x885 JUMPI DUP3 SWAP1 SUB PUSH1 0x1F AND DUP3 ADD SWAP2 JUMPDEST POP POP POP POP POP DUP2 MSTORE PUSH1 0x20 ADD PUSH1 0x1 DUP3 ADD DUP1 SLOAD PUSH2 0x8BB SWAP1 PUSH2 0x122B JUMP JUMPDEST DUP1 PUSH1 0x1F ADD PUSH1 0x20 DUP1 SWAP2 DIV MUL PUSH1 0x20 ADD PUSH1 0x40 MLOAD SWAP1 DUP2 ADD PUSH1 0x40 MSTORE DUP1 SWAP3 SWAP2 SWAP1 DUP2 DUP2 MSTORE PUSH1 0x20 ADD DUP3 DUP1 SLOAD PUSH2 0x8E7 SWAP1 PUSH2 0x122B JUMP JUMPDEST DUP1 ISZERO PUSH2 0x934 JUMPI DUP1 PUSH1 0x1F LT PUSH2 0x909 JUMPI PUSH2 0x100 DUP1 DUP4 SLOAD DIV MUL DUP4 MSTORE SWAP2 PUSH1 0x20 ADD SWAP2 PUSH2 0x934 JUMP JUMPDEST DUP3 ADD SWAP2 SWAP1 PUSH1 0x0 MSTORE PUSH1 0x20 PUSH1 0x0 KECCAK256 SWAP1 JUMPDEST DUP2 SLOAD DUP2 MSTORE SWAP1 PUSH1 0x1 ADD SWAP1 PUSH1 0x20 ADD DUP1 DUP4 GT PUSH2 0x917 JUMPI DUP3 SWAP1 SUB PUSH1 0x1F AND DUP3 ADD SWAP2 JUMPDEST POP POP POP POP POP DUP2 MSTORE PUSH1 0x20 ADD PUSH1 0x2 DUP3 ADD PUSH1 0x0 SWAP1 SLOAD SWAP1 PUSH2 0x100 EXP SWAP1 DIV PUSH20 0xFFFFFFFFFFFFFFFFFFFFFFFFFFFFFFFFFFFFFFFF AND PUSH20 0xFFFFFFFFFFFFFFFFFFFFFFFFFFFFFFFFFFFFFFFF AND PUSH20 0xFFFFFFFFFFFFFFFFFFFFFFFFFFFFFFFFFFFFFFFF AND DUP2 MSTORE PUSH1 0x20 ADD PUSH1 0x3 DUP3 ADD SLOAD DUP2 MSTORE PUSH1 0x20 ADD PUSH1 0x4 DUP3 ADD SLOAD DUP2 MSTORE PUSH1 0x20 ADD PUSH1 0x5 DUP3 ADD SLOAD DUP2 MSTORE POP POP SWAP3 POP POP POP SWAP2 SWAP1 POP JUMP JUMPDEST PUSH2 0x9C2 PUSH2 0xC86 JUMP JUMPDEST PUSH1 0x0 PUSH1 0x1 PUSH1 0x0 DUP5 DUP2 MSTORE PUSH1 0x20 ADD SWAP1 DUP2 MSTORE PUSH1 0x20 ADD PUSH1 0x0 KECCAK256 SWAP1 POP PUSH1 0x0 CALLVALUE GT PUSH2 0xA1C JUMPI PUSH1 0x40 MLOAD PUSH32 0x8C379A000000000000000000000000000000000000000000000000000000000 DUP2 MSTORE PUSH1 0x4 ADD PUSH2 0xA13 SWAP1 PUSH2 0x1B13 JUMP JUMPDEST PUSH1 0x40 MLOAD DUP1 SWAP2 SUB SWAP1 REVERT JUMPDEST DUP1 PUSH1 0x4 ADD SLOAD TIMESTAMP LT PUSH2 0xA62 JUMPI PUSH1 0x40 MLOAD PUSH32 0x8C379A000000000000000000000000000000000000000000000000000000000 DUP2 MSTORE PUSH1 0x4 ADD PUSH2 0xA59 SWAP1 PUSH2 0x1B7F JUMP JUMPDEST PUSH1 0x40 MLOAD DUP1 SWAP2 SUB SWAP1 REVERT JUMPDEST CALLVALUE DUP2 PUSH1 0x5 ADD PUSH1 0x0 DUP3 DUP3 SLOAD PUSH2 0xA76 SWAP2 SWAP1 PUSH2 0x13F5 JUMP JUMPDEST SWAP3 POP POP DUP2 SWAP1 SSTORE POP PUSH32 0x7F33CC4FF9EC616B18266CCFE9ACB607A1F8B1FB7E411B9A9B9DC03DF1FB548A DUP4 CALLVALUE PUSH1 0x40 MLOAD PUSH2 0xAAE SWAP3 SWAP2 SWAP1 PUSH2 0x1B9F JUMP JUMPDEST PUSH1 0x40 MLOAD DUP1 SWAP2 SUB SWAP1 LOG1 DUP1 PUSH1 0x40 MLOAD DUP1 PUSH1 0xC0 ADD PUSH1 0x40 MSTORE SWAP1 DUP2 PUSH1 0x0 DUP3 ADD DUP1 SLOAD PUSH2 0xAD2 SWAP1 PUSH2 0x122B JUMP JUMPDEST DUP1 PUSH1 0x1F ADD PUSH1 0x20 DUP1 SWAP2 DIV MUL PUSH1 0x20 ADD PUSH1 0x40 MLOAD SWAP1 DUP2 ADD PUSH1 0x40 MSTORE DUP1 SWAP3 SWAP2 SWAP1 DUP2 DUP2 MSTORE PUSH1 0x20 ADD DUP3 DUP1 SLOAD PUSH2 0xAFE SWAP1 PUSH2 0x122B JUMP JUMPDEST DUP1 ISZERO PUSH2 0xB4B JUMPI DUP1 PUSH1 0x1F LT PUSH2 0xB20 JUMPI PUSH2 0x100 DUP1 DUP4 SLOAD DIV MUL DUP4 MSTORE SWAP2 PUSH1 0x20 ADD SWAP2 PUSH2 0xB4B JUMP JUMPDEST DUP3 ADD SWAP2 SWAP1 PUSH1 0x0 MSTORE PUSH1 0x20 PUSH1 0x0 KECCAK256 SWAP1 JUMPDEST DUP2 SLOAD DUP2 MSTORE SWAP1 PUSH1 0x1 ADD SWAP1 PUSH1 0x20 ADD DUP1 DUP4 GT PUSH2 0xB2E JUMPI DUP3 SWAP1 SUB PUSH1 0x1F AND DUP3 ADD SWAP2 JUMPDEST POP POP POP POP POP DUP2 MSTORE PUSH1 0x20 ADD PUSH1 0x1 DUP3 ADD DUP1 SLOAD PUSH2 0xB64 SWAP1 PUSH2 0x122B JUMP JUMPDEST DUP1 PUSH1 0x1F ADD PUSH1 0x20 DUP1 SWAP2 DIV MUL PUSH1 0x20 ADD PUSH1 0x40 MLOAD SWAP1 DUP2 ADD PUSH1 0x40 MSTORE DUP1 SWAP3 SWAP2 SWAP1 DUP2 DUP2 MSTORE PUSH1 0x20 ADD DUP3 DUP1 SLOAD PUSH2 0xB90 SWAP1 PUSH2 0x122B JUMP JUMPDEST DUP1 ISZERO PUSH2 0xBDD JUMPI DUP1 PUSH1 0x1F LT PUSH2 0xBB2 JUMPI PUSH2 0x100 DUP1 DUP4 SLOAD DIV MUL DUP4 MSTORE SWAP2 PUSH1 0x20 ADD SWAP2 PUSH2 0xBDD JUMP JUMPDEST DUP3 ADD SWAP2 SWAP1 PUSH1 0x0 MSTORE PUSH1 0x20 PUSH1 0x0 KECCAK256 SWAP1 JUMPDEST DUP2 SLOAD DUP2 MSTORE SWAP1 PUSH1 0x1 ADD SWAP1 PUSH1 0x20 ADD DUP1 DUP4 GT PUSH2 0xBC0 JUMPI DUP3 SWAP1 SUB PUSH1 0x1F AND DUP3 ADD SWAP2 JUMPDEST POP POP POP POP POP DUP2 MSTORE PUSH1 0x20 ADD PUSH1 0x2 DUP3 ADD PUSH1 0x0 SWAP1 SLOAD SWAP1 PUSH2 0x100 EXP SWAP1 DIV PUSH20 0xFFFFFFFFFFFFFFFFFFFFFFFFFFFFFFFFFFFFFFFF AND PUSH20 0xFFFFFFFFFFFFFFFFFFFFFFFFFFFFFFFFFFFFFFFF AND PUSH20 0xFFFFFFFFFFFFFFFFFFFFFFFFFFFFFFFFFFFFFFFF AND DUP2 MSTORE PUSH1 0x20 ADD PUSH1 0x3 DUP3 ADD SLOAD DUP2 MSTORE PUSH1 0x20 ADD PUSH1 0x4 DUP3 ADD SLOAD DUP2 MSTORE PUSH1 0x20 ADD PUSH1 0x5 DUP3 ADD SLOAD DUP2 MSTORE POP POP SWAP2 POP POP SWAP2 SWAP1 POP JUMP JUMPDEST PUSH1 0x2 DUP2 DUP2 SLOAD DUP2 LT PUSH2 0xC72 JUMPI PUSH1 0x0 DUP1 REVERT JUMPDEST SWAP1 PUSH1 0x0 MSTORE PUSH1 0x20 PUSH1 0x0 KECCAK256 ADD PUSH1 0x0 SWAP2 POP SWAP1 POP SLOAD DUP2 JUMP JUMPDEST PUSH1 0x40 MLOAD DUP1 PUSH1 0xC0 ADD PUSH1 0x40 MSTORE DUP1 PUSH1 0x60 DUP2 MSTORE PUSH1 0x20 ADD PUSH1 0x60 DUP2 MSTORE PUSH1 0x20 ADD PUSH1 0x0 PUSH20 0xFFFFFFFFFFFFFFFFFFFFFFFFFFFFFFFFFFFFFFFF AND DUP2 MSTORE PUSH1 0x20 ADD PUSH1 0x0 DUP2 MSTORE PUSH1 0x20 ADD PUSH1 0x0 DUP2 MSTORE PUSH1 0x20 ADD PUSH1 0x0 DUP2 MSTORE POP SWAP1 JUMP JUMPDEST PUSH1 0x0 PUSH1 0x40 MLOAD SWAP1 POP SWAP1 JUMP JUMPDEST PUSH1 0x0 DUP1 REVERT JUMPDEST PUSH1 0x0 DUP1 REVERT JUMPDEST PUSH1 0x0 DUP2 SWAP1 POP SWAP2 SWAP1 POP JUMP JUMPDEST PUSH2 0xCF9 DUP2 PUSH2 0xCE6 JUMP JUMPDEST DUP2 EQ PUSH2 0xD04 JUMPI PUSH1 0x0 DUP1 REVERT JUMPDEST POP JUMP JUMPDEST PUSH1 0x0 DUP2 CALLDATALOAD SWAP1 POP PUSH2 0xD16 DUP2 PUSH2 0xCF0 JUMP JUMPDEST SWAP3 SWAP2 POP POP JUMP JUMPDEST PUSH1 0x0 PUSH1 0x20 DUP3 DUP5 SUB SLT ISZERO PUSH2 0xD32 JUMPI PUSH2 0xD31 PUSH2 0xCDC JUMP JUMPDEST JUMPDEST PUSH1 0x0 PUSH2 0xD40 DUP5 DUP3 DUP6 ADD PUSH2 0xD07 JUMP JUMPDEST SWAP2 POP POP SWAP3 SWAP2 POP POP JUMP JUMPDEST PUSH1 0x0 DUP2 MLOAD SWAP1 POP SWAP2 SWAP1 POP JUMP JUMPDEST PUSH1 0x0 DUP3 DUP3 MSTORE PUSH1 0x20 DUP3 ADD SWAP1 POP SWAP3 SWAP2 POP POP JUMP JUMPDEST PUSH1 0x0 JUMPDEST DUP4 DUP2 LT ISZERO PUSH2 0xD83 JUMPI DUP1 DUP3 ADD MLOAD DUP2 DUP5 ADD MSTORE PUSH1 0x20 DUP2 ADD SWAP1 POP PUSH2 0xD68 JUMP JUMPDEST PUSH1 0x0 DUP5 DUP5 ADD MSTORE POP POP POP POP JUMP JUMPDEST PUSH1 0x0 PUSH1 0x1F NOT PUSH1 0x1F DUP4 ADD AND SWAP1 POP SWAP2 SWAP1 POP JUMP JUMPDEST PUSH1 0x0 PUSH2 0xDAB DUP3 PUSH2 0xD49 JUMP JUMPDEST PUSH2 0xDB5 DUP2 DUP6 PUSH2 0xD54 JUMP JUMPDEST SWAP4 POP PUSH2 0xDC5 DUP2 DUP6 PUSH1 0x20 DUP7 ADD PUSH2 0xD65 JUMP JUMPDEST PUSH2 0xDCE DUP2 PUSH2 0xD8F JUMP JUMPDEST DUP5 ADD SWAP2 POP POP SWAP3 SWAP2 POP POP JUMP JUMPDEST PUSH1 0x0 PUSH20 0xFFFFFFFFFFFFFFFFFFFFFFFFFFFFFFFFFFFFFFFF DUP3 AND SWAP1 POP SWAP2 SWAP1 POP JUMP JUMPDEST PUSH1 0x0 PUSH2 0xE04 DUP3 PUSH2 0xDD9 JUMP JUMPDEST SWAP1 POP SWAP2 SWAP1 POP JUMP JUMPDEST PUSH2 0xE14 DUP2 PUSH2 0xDF9 JUMP JUMPDEST DUP3 MSTORE POP POP JUMP JUMPDEST PUSH2 0xE23 DUP2 PUSH2 0xCE6 JUMP JUMPDEST DUP3 MSTORE POP POP JUMP JUMPDEST PUSH1 0x0 PUSH1 0xC0 DUP3 ADD SWAP1 POP DUP2 DUP2 SUB PUSH1 0x0 DUP4 ADD MSTORE PUSH2 0xE43 DUP2 DUP10 PUSH2 0xDA0 JUMP JUMPDEST SWAP1 POP DUP2 DUP2 SUB PUSH1 0x20 DUP4 ADD MSTORE PUSH2 0xE57 DUP2 DUP9 PUSH2 0xDA0 JUMP JUMPDEST SWAP1 POP PUSH2 0xE66 PUSH1 0x40 DUP4 ADD DUP8 PUSH2 0xE0B JUMP JUMPDEST PUSH2 0xE73 PUSH1 0x60 DUP4 ADD DUP7 PUSH2 0xE1A JUMP JUMPDEST PUSH2 0xE80 PUSH1 0x80 DUP4 ADD DUP6 PUSH2 0xE1A JUMP JUMPDEST PUSH2 0xE8D PUSH1 0xA0 DUP4 ADD DUP5 PUSH2 0xE1A JUMP JUMPDEST SWAP8 SWAP7 POP POP POP POP POP POP POP JUMP JUMPDEST PUSH1 0x0 PUSH1 0x20 DUP3 ADD SWAP1 POP PUSH2 0xEAD PUSH1 0x0 DUP4 ADD DUP5 PUSH2 0xE0B JUMP JUMPDEST SWAP3 SWAP2 POP POP JUMP JUMPDEST PUSH1 0x0 DUP1 REVERT JUMPDEST PUSH1 0x0 DUP1 REVERT JUMPDEST PUSH32 0x4E487B7100000000000000000000000000000000000000000000000000000000 PUSH1 0x0 MSTORE PUSH1 0x41 PUSH1 0x4 MSTORE PUSH1 0x24 PUSH1 0x0 REVERT JUMPDEST PUSH2 0xEF5 DUP3 PUSH2 0xD8F JUMP JUMPDEST DUP2 ADD DUP2 DUP2 LT PUSH8 0xFFFFFFFFFFFFFFFF DUP3 GT OR ISZERO PUSH2 0xF14 JUMPI PUSH2 0xF13 PUSH2 0xEBD JUMP JUMPDEST JUMPDEST DUP1 PUSH1 0x40 MSTORE POP POP POP JUMP JUMPDEST PUSH1 0x0 PUSH2 0xF27 PUSH2 0xCD2 JUMP JUMPDEST SWAP1 POP PUSH2 0xF33 DUP3 DUP3 PUSH2 0xEEC JUMP JUMPDEST SWAP2 SWAP1 POP JUMP JUMPDEST PUSH1 0x0 PUSH8 0xFFFFFFFFFFFFFFFF DUP3 GT ISZERO PUSH2 0xF53 JUMPI PUSH2 0xF52 PUSH2 0xEBD JUMP JUMPDEST JUMPDEST PUSH2 0xF5C DUP3 PUSH2 0xD8F JUMP JUMPDEST SWAP1 POP PUSH1 0x20 DUP2 ADD SWAP1 POP SWAP2 SWAP1 POP JUMP JUMPDEST DUP3 DUP2 DUP4 CALLDATACOPY PUSH1 0x0 DUP4 DUP4 ADD MSTORE POP POP POP JUMP JUMPDEST PUSH1 0x0 PUSH2 0xF8B PUSH2 0xF86 DUP5 PUSH2 0xF38 JUMP JUMPDEST PUSH2 0xF1D JUMP JUMPDEST SWAP1 POP DUP3 DUP2 MSTORE PUSH1 0x20 DUP2 ADD DUP5 DUP5 DUP5 ADD GT ISZERO PUSH2 0xFA7 JUMPI PUSH2 0xFA6 PUSH2 0xEB8 JUMP JUMPDEST JUMPDEST PUSH2 0xFB2 DUP5 DUP3 DUP6 PUSH2 0xF69 JUMP JUMPDEST POP SWAP4 SWAP3 POP POP POP JUMP JUMPDEST PUSH1 0x0 DUP3 PUSH1 0x1F DUP4 ADD SLT PUSH2 0xFCF JUMPI PUSH2 0xFCE PUSH2 0xEB3 JUMP JUMPDEST JUMPDEST DUP2 CALLDATALOAD PUSH2 0xFDF DUP5 DUP3 PUSH1 0x20 DUP7 ADD PUSH2 0xF78 JUMP JUMPDEST SWAP2 POP POP SWAP3 SWAP2 POP POP JUMP JUMPDEST PUSH2 0xFF1 DUP2 PUSH2 0xDF9 JUMP JUMPDEST DUP2 EQ PUSH2 0xFFC JUMPI PUSH1 0x0 DUP1 REVERT JUMPDEST POP JUMP JUMPDEST PUSH1 0x0 DUP2 CALLDATALOAD SWAP1 POP PUSH2 0x100E DUP2 PUSH2 0xFE8 JUMP JUMPDEST SWAP3 SWAP2 POP POP JUMP JUMPDEST PUSH1 0x0 DUP1 PUSH1 0x0 DUP1 PUSH1 0x0 PUSH1 0xA0 DUP7 DUP9 SUB SLT ISZERO PUSH2 0x1030 JUMPI PUSH2 0x102F PUSH2 0xCDC JUMP JUMPDEST JUMPDEST PUSH1 0x0 DUP7 ADD CALLDATALOAD PUSH8 0xFFFFFFFFFFFFFFFF DUP2 GT ISZERO PUSH2 0x104E JUMPI PUSH2 0x104D PUSH2 0xCE1 JUMP JUMPDEST JUMPDEST PUSH2 0x105A DUP9 DUP3 DUP10 ADD PUSH2 0xFBA JUMP JUMPDEST SWAP6 POP POP PUSH1 0x20 DUP7 ADD CALLDATALOAD PUSH8 0xFFFFFFFFFFFFFFFF DUP2 GT ISZERO PUSH2 0x107B JUMPI PUSH2 0x107A PUSH2 0xCE1 JUMP JUMPDEST JUMPDEST PUSH2 0x1087 DUP9 DUP3 DUP10 ADD PUSH2 0xFBA JUMP JUMPDEST SWAP5 POP POP PUSH1 0x40 PUSH2 0x1098 DUP9 DUP3 DUP10 ADD PUSH2 0xFFF JUMP JUMPDEST SWAP4 POP POP PUSH1 0x60 PUSH2 0x10A9 DUP9 DUP3 DUP10 ADD PUSH2 0xD07 JUMP JUMPDEST SWAP3 POP POP PUSH1 0x80 PUSH2 0x10BA DUP9 DUP3 DUP10 ADD PUSH2 0xD07 JUMP JUMPDEST SWAP2 POP POP SWAP3 SWAP6 POP SWAP3 SWAP6 SWAP1 SWAP4 POP JUMP JUMPDEST PUSH1 0x0 DUP3 DUP3 MSTORE PUSH1 0x20 DUP3 ADD SWAP1 POP SWAP3 SWAP2 POP POP JUMP JUMPDEST PUSH1 0x0 PUSH2 0x10E3 DUP3 PUSH2 0xD49 JUMP JUMPDEST PUSH2 0x10ED DUP2 DUP6 PUSH2 0x10C7 JUMP JUMPDEST SWAP4 POP PUSH2 0x10FD DUP2 DUP6 PUSH1 0x20 DUP7 ADD PUSH2 0xD65 JUMP JUMPDEST PUSH2 0x1106 DUP2 PUSH2 0xD8F JUMP JUMPDEST DUP5 ADD SWAP2 POP POP SWAP3 SWAP2 POP POP JUMP JUMPDEST PUSH2 0x111A DUP2 PUSH2 0xDF9 JUMP JUMPDEST DUP3 MSTORE POP POP JUMP JUMPDEST PUSH2 0x1129 DUP2 PUSH2 0xCE6 JUMP JUMPDEST DUP3 MSTORE POP POP JUMP JUMPDEST PUSH1 0x0 PUSH1 0xC0 DUP4 ADD PUSH1 0x0 DUP4 ADD MLOAD DUP5 DUP3 SUB PUSH1 0x0 DUP7 ADD MSTORE PUSH2 0x114C DUP3 DUP3 PUSH2 0x10D8 JUMP JUMPDEST SWAP2 POP POP PUSH1 0x20 DUP4 ADD MLOAD DUP5 DUP3 SUB PUSH1 0x20 DUP7 ADD MSTORE PUSH2 0x1166 DUP3 DUP3 PUSH2 0x10D8 JUMP JUMPDEST SWAP2 POP POP PUSH1 0x40 DUP4 ADD MLOAD PUSH2 0x117B PUSH1 0x40 DUP7 ADD DUP3 PUSH2 0x1111 JUMP JUMPDEST POP PUSH1 0x60 DUP4 ADD MLOAD PUSH2 0x118E PUSH1 0x60 DUP7 ADD DUP3 PUSH2 0x1120 JUMP JUMPDEST POP PUSH1 0x80 DUP4 ADD MLOAD PUSH2 0x11A1 PUSH1 0x80 DUP7 ADD DUP3 PUSH2 0x1120 JUMP JUMPDEST POP PUSH1 0xA0 DUP4 ADD MLOAD PUSH2 0x11B4 PUSH1 0xA0 DUP7 ADD DUP3 PUSH2 0x1120 JUMP JUMPDEST POP DUP1 SWAP2 POP POP SWAP3 SWAP2 POP POP JUMP JUMPDEST PUSH1 0x0 PUSH1 0x20 DUP3 ADD SWAP1 POP DUP2 DUP2 SUB PUSH1 0x0 DUP4 ADD MSTORE PUSH2 0x11D9 DUP2 DUP5 PUSH2 0x112F JUMP JUMPDEST SWAP1 POP SWAP3 SWAP2 POP POP JUMP JUMPDEST PUSH1 0x0 PUSH1 0x20 DUP3 ADD SWAP1 POP PUSH2 0x11F6 PUSH1 0x0 DUP4 ADD DUP5 PUSH2 0xE1A JUMP JUMPDEST SWAP3 SWAP2 POP POP JUMP JUMPDEST PUSH32 0x4E487B7100000000000000000000000000000000000000000000000000000000 PUSH1 0x0 MSTORE PUSH1 0x22 PUSH1 0x4 MSTORE PUSH1 0x24 PUSH1 0x0 REVERT JUMPDEST PUSH1 0x0 PUSH1 0x2 DUP3 DIV SWAP1 POP PUSH1 0x1 DUP3 AND DUP1 PUSH2 0x1243 JUMPI PUSH1 0x7F DUP3 AND SWAP2 POP JUMPDEST PUSH1 0x20 DUP3 LT DUP2 SUB PUSH2 0x1256 JUMPI PUSH2 0x1255 PUSH2 0x11FC JUMP JUMPDEST JUMPDEST POP SWAP2 SWAP1 POP JUMP JUMPDEST PUSH32 0x4E6F742074686520636F6E7472616374206F776E657200000000000000000000 PUSH1 0x0 DUP3 ADD MSTORE POP JUMP JUMPDEST PUSH1 0x0 PUSH2 0x1292 PUSH1 0x16 DUP4 PUSH2 0xD54 JUMP JUMPDEST SWAP2 POP PUSH2 0x129D DUP3 PUSH2 0x125C JUMP JUMPDEST PUSH1 0x20 DUP3 ADD SWAP1 POP SWAP2 SWAP1 POP JUMP JUMPDEST PUSH1 0x0 PUSH1 0x20 DUP3 ADD SWAP1 POP DUP2 DUP2 SUB PUSH1 0x0 DUP4 ADD MSTORE PUSH2 0x12C1 DUP2 PUSH2 0x1285 JUMP JUMPDEST SWAP1 POP SWAP2 SWAP1 POP JUMP JUMPDEST PUSH32 0x4E6F2066756E647320746F207769746864726177000000000000000000000000 PUSH1 0x0 DUP3 ADD MSTORE POP JUMP JUMPDEST PUSH1 0x0 PUSH2 0x12FE PUSH1 0x14 DUP4 PUSH2 0xD54 JUMP JUMPDEST SWAP2 POP PUSH2 0x1309 DUP3 PUSH2 0x12C8 JUMP JUMPDEST PUSH1 0x20 DUP3 ADD SWAP1 POP SWAP2 SWAP1 POP JUMP JUMPDEST PUSH1 0x0 PUSH1 0x20 DUP3 ADD SWAP1 POP DUP2 DUP2 SUB PUSH1 0x0 DUP4 ADD MSTORE PUSH2 0x132D DUP2 PUSH2 0x12F1 JUMP JUMPDEST SWAP1 POP SWAP2 SWAP1 POP JUMP JUMPDEST PUSH32 0x476F616C2073686F756C642062652067726561746572207468616E207A65726F PUSH1 0x0 DUP3 ADD MSTORE PUSH32 0x2E00000000000000000000000000000000000000000000000000000000000000 PUSH1 0x20 DUP3 ADD MSTORE POP JUMP JUMPDEST PUSH1 0x0 PUSH2 0x1390 PUSH1 0x21 DUP4 PUSH2 0xD54 JUMP JUMPDEST SWAP2 POP PUSH2 0x139B DUP3 PUSH2 0x1334 JUMP JUMPDEST PUSH1 0x40 DUP3 ADD SWAP1 POP SWAP2 SWAP1 POP JUMP JUMPDEST PUSH1 0x0 PUSH1 0x20 DUP3 ADD SWAP1 POP DUP2 DUP2 SUB PUSH1 0x0 DUP4 ADD MSTORE PUSH2 0x13BF DUP2 PUSH2 0x1383 JUMP JUMPDEST SWAP1 POP SWAP2 SWAP1 POP JUMP JUMPDEST PUSH32 0x4E487B7100000000000000000000000000000000000000000000000000000000 PUSH1 0x0 MSTORE PUSH1 0x11 PUSH1 0x4 MSTORE PUSH1 0x24 PUSH1 0x0 REVERT JUMPDEST PUSH1 0x0 PUSH2 0x1400 DUP3 PUSH2 0xCE6 JUMP JUMPDEST SWAP2 POP PUSH2 0x140B DUP4 PUSH2 0xCE6 JUMP JUMPDEST SWAP3 POP DUP3 DUP3 ADD SWAP1 POP DUP1 DUP3 GT ISZERO PUSH2 0x1423 JUMPI PUSH2 0x1422 PUSH2 0x13C6 JUMP JUMPDEST JUMPDEST SWAP3 SWAP2 POP POP JUMP JUMPDEST PUSH1 0x0 DUP2 SWAP1 POP DUP2 PUSH1 0x0 MSTORE PUSH1 0x20 PUSH1 0x0 KECCAK256 SWAP1 POP SWAP2 SWAP1 POP JUMP JUMPDEST PUSH1 0x0 PUSH1 0x20 PUSH1 0x1F DUP4 ADD DIV SWAP1 POP SWAP2 SWAP1 POP JUMP JUMPDEST PUSH1 0x0 DUP3 DUP3 SHL SWAP1 POP SWAP3 SWAP2 POP POP JUMP JUMPDEST PUSH1 0x0 PUSH1 0x8 DUP4 MUL PUSH2 0x148B PUSH32 0xFFFFFFFFFFFFFFFFFFFFFFFFFFFFFFFFFFFFFFFFFFFFFFFFFFFFFFFFFFFFFFFF DUP3 PUSH2 0x144E JUMP JUMPDEST PUSH2 0x1495 DUP7 DUP4 PUSH2 0x144E JUMP JUMPDEST SWAP6 POP DUP1 NOT DUP5 AND SWAP4 POP DUP1 DUP7 AND DUP5 OR SWAP3 POP POP POP SWAP4 SWAP3 POP POP POP JUMP JUMPDEST PUSH1 0x0 DUP2 SWAP1 POP SWAP2 SWAP1 POP JUMP JUMPDEST PUSH1 0x0 PUSH2 0x14D2 PUSH2 0x14CD PUSH2 0x14C8 DUP5 PUSH2 0xCE6 JUMP JUMPDEST PUSH2 0x14AD JUMP JUMPDEST PUSH2 0xCE6 JUMP JUMPDEST SWAP1 POP SWAP2 SWAP1 POP JUMP JUMPDEST PUSH1 0x0 DUP2 SWAP1 POP SWAP2 SWAP1 POP JUMP JUMPDEST PUSH2 0x14EC DUP4 PUSH2 0x14B7 JUMP JUMPDEST PUSH2 0x1500 PUSH2 0x14F8 DUP3 PUSH2 0x14D9 JUMP JUMPDEST DUP5 DUP5 SLOAD PUSH2 0x145B JUMP JUMPDEST DUP3 SSTORE POP POP POP POP JUMP JUMPDEST PUSH1 0x0 SWAP1 JUMP JUMPDEST PUSH2 0x1515 PUSH2 0x1508 JUMP JUMPDEST PUSH2 0x1520 DUP2 DUP5 DUP5 PUSH2 0x14E3 JUMP JUMPDEST POP POP POP JUMP JUMPDEST JUMPDEST DUP2 DUP2 LT ISZERO PUSH2 0x1544 JUMPI PUSH2 0x1539 PUSH1 0x0 DUP3 PUSH2 0x150D JUMP JUMPDEST PUSH1 0x1 DUP2 ADD SWAP1 POP PUSH2 0x1526 JUMP JUMPDEST POP POP JUMP JUMPDEST PUSH1 0x1F DUP3 GT ISZERO PUSH2 0x1589 JUMPI PUSH2 0x155A DUP2 PUSH2 0x1429 JUMP JUMPDEST PUSH2 0x1563 DUP5 PUSH2 0x143E JUMP JUMPDEST DUP2 ADD PUSH1 0x20 DUP6 LT ISZERO PUSH2 0x1572 JUMPI DUP2 SWAP1 POP JUMPDEST PUSH2 0x1586 PUSH2 0x157E DUP6 PUSH2 0x143E JUMP JUMPDEST DUP4 ADD DUP3 PUSH2 0x1525 JUMP JUMPDEST POP POP JUMPDEST POP POP POP JUMP JUMPDEST PUSH1 0x0 DUP3 DUP3 SHR SWAP1 POP SWAP3 SWAP2 POP POP JUMP JUMPDEST PUSH1 0x0 PUSH2 0x15AC PUSH1 0x0 NOT DUP5 PUSH1 0x8 MUL PUSH2 0x158E JUMP JUMPDEST NOT DUP1 DUP4 AND SWAP2 POP POP SWAP3 SWAP2 POP POP JUMP JUMPDEST PUSH1 0x0 PUSH2 0x15C5 DUP4 DUP4 PUSH2 0x159B JUMP JUMPDEST SWAP2 POP DUP3 PUSH1 0x2 MUL DUP3 OR SWAP1 POP SWAP3 SWAP2 POP POP JUMP JUMPDEST PUSH2 0x15DE DUP3 PUSH2 0xD49 JUMP JUMPDEST PUSH8 0xFFFFFFFFFFFFFFFF DUP2 GT ISZERO PUSH2 0x15F7 JUMPI PUSH2 0x15F6 PUSH2 0xEBD JUMP JUMPDEST JUMPDEST PUSH2 0x1601 DUP3 SLOAD PUSH2 0x122B JUMP JUMPDEST PUSH2 0x160C DUP3 DUP3 DUP6 PUSH2 0x1548 JUMP JUMPDEST PUSH1 0x0 PUSH1 0x20 SWAP1 POP PUSH1 0x1F DUP4 GT PUSH1 0x1 DUP2 EQ PUSH2 0x163F JUMPI PUSH1 0x0 DUP5 ISZERO PUSH2 0x162D JUMPI DUP3 DUP8 ADD MLOAD SWAP1 POP JUMPDEST PUSH2 0x1637 DUP6 DUP3 PUSH2 0x15B9 JUMP JUMPDEST DUP7 SSTORE POP PUSH2 0x169F JUMP JUMPDEST PUSH1 0x1F NOT DUP5 AND PUSH2 0x164D DUP7 PUSH2 0x1429 JUMP JUMPDEST PUSH1 0x0 JUMPDEST DUP3 DUP2 LT ISZERO PUSH2 0x1675 JUMPI DUP5 DUP10 ADD MLOAD DUP3 SSTORE PUSH1 0x1 DUP3 ADD SWAP2 POP PUSH1 0x20 DUP6 ADD SWAP5 POP PUSH1 0x20 DUP2 ADD SWAP1 POP PUSH2 0x1650 JUMP JUMPDEST DUP7 DUP4 LT ISZERO PUSH2 0x1692 JUMPI DUP5 DUP10 ADD MLOAD PUSH2 0x168E PUSH1 0x1F DUP10 AND DUP3 PUSH2 0x159B JUMP JUMPDEST DUP4 SSTORE POP JUMPDEST PUSH1 0x1 PUSH1 0x2 DUP9 MUL ADD DUP9 SSTORE POP POP POP JUMPDEST POP POP POP POP POP POP JUMP JUMPDEST PUSH1 0x0 PUSH1 0xA0 DUP3 ADD SWAP1 POP DUP2 DUP2 SUB PUSH1 0x0 DUP4 ADD MSTORE PUSH2 0x16C1 DUP2 DUP9 PUSH2 0xDA0 JUMP JUMPDEST SWAP1 POP DUP2 DUP2 SUB PUSH1 0x20 DUP4 ADD MSTORE PUSH2 0x16D5 DUP2 DUP8 PUSH2 0xDA0 JUMP JUMPDEST SWAP1 POP PUSH2 0x16E4 PUSH1 0x40 DUP4 ADD DUP7 PUSH2 0xE0B JUMP JUMPDEST PUSH2 0x16F1 PUSH1 0x60 DUP4 ADD DUP6 PUSH2 0xE1A JUMP JUMPDEST PUSH2 0x16FE PUSH1 0x80 DUP4 ADD DUP5 PUSH2 0xE1A JUMP JUMPDEST SWAP7 SWAP6 POP POP POP POP POP POP JUMP JUMPDEST PUSH32 0x43616D706169676E206973207374696C6C206F6E676F696E6700000000000000 PUSH1 0x0 DUP3 ADD MSTORE POP JUMP JUMPDEST PUSH1 0x0 PUSH2 0x173E PUSH1 0x19 DUP4 PUSH2 0xD54 JUMP JUMPDEST SWAP2 POP PUSH2 0x1749 DUP3 PUSH2 0x1708 JUMP JUMPDEST PUSH1 0x20 DUP3 ADD SWAP1 POP SWAP2 SWAP1 POP JUMP JUMPDEST PUSH1 0x0 PUSH1 0x20 DUP3 ADD SWAP1 POP DUP2 DUP2 SUB PUSH1 0x0 DUP4 ADD MSTORE PUSH2 0x176D DUP2 PUSH2 0x1731 JUMP JUMPDEST SWAP1 POP SWAP2 SWAP1 POP JUMP JUMPDEST PUSH32 0x43616D706169676E20616C726561647920656E646564206F72206E6F2066756E PUSH1 0x0 DUP3 ADD MSTORE PUSH32 0x6473207261697365640000000000000000000000000000000000000000000000 PUSH1 0x20 DUP3 ADD MSTORE POP JUMP JUMPDEST PUSH1 0x0 PUSH2 0x17D0 PUSH1 0x29 DUP4 PUSH2 0xD54 JUMP JUMPDEST SWAP2 POP PUSH2 0x17DB DUP3 PUSH2 0x1774 JUMP JUMPDEST PUSH1 0x40 DUP3 ADD SWAP1 POP SWAP2 SWAP1 POP JUMP JUMPDEST PUSH1 0x0 PUSH1 0x20 DUP3 ADD SWAP1 POP DUP2 DUP2 SUB PUSH1 0x0 DUP4 ADD MSTORE PUSH2 0x17FF DUP2 PUSH2 0x17C3 JUMP JUMPDEST SWAP1 POP SWAP2 SWAP1 POP JUMP JUMPDEST PUSH1 0x0 DUP2 SWAP1 POP SWAP3 SWAP2 POP POP JUMP JUMPDEST POP JUMP JUMPDEST PUSH1 0x0 PUSH2 0x1821 PUSH1 0x0 DUP4 PUSH2 0x1806 JUMP JUMPDEST SWAP2 POP PUSH2 0x182C DUP3 PUSH2 0x1811 JUMP JUMPDEST PUSH1 0x0 DUP3 ADD SWAP1 POP SWAP2 SWAP1 POP JUMP JUMPDEST PUSH1 0x0 PUSH2 0x1842 DUP3 PUSH2 0x1814 JUMP JUMPDEST SWAP2 POP DUP2 SWAP1 POP SWAP2 SWAP1 POP JUMP JUMPDEST PUSH32 0x5472616E7366657220746F2062656E65666163746F72206661696C65642E0000 PUSH1 0x0 DUP3 ADD MSTORE POP JUMP JUMPDEST PUSH1 0x0 PUSH2 0x1882 PUSH1 0x1E DUP4 PUSH2 0xD54 JUMP JUMPDEST SWAP2 POP PUSH2 0x188D DUP3 PUSH2 0x184C JUMP JUMPDEST PUSH1 0x20 DUP3 ADD SWAP1 POP SWAP2 SWAP1 POP JUMP JUMPDEST PUSH1 0x0 PUSH1 0x20 DUP3 ADD SWAP1 POP DUP2 DUP2 SUB PUSH1 0x0 DUP4 ADD MSTORE PUSH2 0x18B1 DUP2 PUSH2 0x1875 JUMP JUMPDEST SWAP1 POP SWAP2 SWAP1 POP JUMP JUMPDEST PUSH1 0x0 DUP2 SLOAD PUSH2 0x18C5 DUP2 PUSH2 0x122B JUMP JUMPDEST PUSH2 0x18CF DUP2 DUP7 PUSH2 0x10C7 JUMP JUMPDEST SWAP5 POP PUSH1 0x1 DUP3 AND PUSH1 0x0 DUP2 EQ PUSH2 0x18EA JUMPI PUSH1 0x1 DUP2 EQ PUSH2 0x1900 JUMPI PUSH2 0x1933 JUMP JUMPDEST PUSH1 0xFF NOT DUP4 AND DUP7 MSTORE DUP2 ISZERO ISZERO PUSH1 0x20 MUL DUP7 ADD SWAP4 POP PUSH2 0x1933 JUMP JUMPDEST PUSH2 0x1909 DUP6 PUSH2 0x1429 JUMP JUMPDEST PUSH1 0x0 JUMPDEST DUP4 DUP2 LT ISZERO PUSH2 0x192B JUMPI DUP2 SLOAD DUP2 DUP10 ADD MSTORE PUSH1 0x1 DUP3 ADD SWAP2 POP PUSH1 0x20 DUP2 ADD SWAP1 POP PUSH2 0x190C JUMP JUMPDEST DUP1 DUP9 ADD SWAP6 POP POP POP JUMPDEST POP POP POP SWAP3 SWAP2 POP POP JUMP JUMPDEST PUSH1 0x0 DUP2 PUSH1 0x0 SHR SWAP1 POP SWAP2 SWAP1 POP JUMP JUMPDEST PUSH1 0x0 PUSH20 0xFFFFFFFFFFFFFFFFFFFFFFFFFFFFFFFFFFFFFFFF DUP3 AND SWAP1 POP SWAP2 SWAP1 POP JUMP JUMPDEST PUSH1 0x0 PUSH2 0x197C PUSH2 0x1977 DUP4 PUSH2 0x193C JUMP JUMPDEST PUSH2 0x1949 JUMP JUMPDEST SWAP1 POP SWAP2 SWAP1 POP JUMP JUMPDEST PUSH1 0x0 DUP2 SWAP1 POP SWAP2 SWAP1 POP JUMP JUMPDEST PUSH1 0x0 PUSH2 0x19A0 PUSH2 0x199B DUP4 PUSH2 0x193C JUMP JUMPDEST PUSH2 0x1983 JUMP JUMPDEST SWAP1 POP SWAP2 SWAP1 POP JUMP JUMPDEST PUSH1 0x0 PUSH1 0xC0 DUP4 ADD PUSH1 0x0 DUP1 DUP5 ADD DUP6 DUP4 SUB PUSH1 0x0 DUP8 ADD MSTORE PUSH2 0x19C4 DUP4 DUP3 PUSH2 0x18B8 JUMP JUMPDEST SWAP3 POP POP PUSH1 0x1 DUP5 ADD DUP6 DUP4 SUB PUSH1 0x20 DUP8 ADD MSTORE PUSH2 0x19DD DUP4 DUP3 PUSH2 0x18B8 JUMP JUMPDEST SWAP3 POP POP PUSH1 0x2 DUP5 ADD SLOAD SWAP1 POP PUSH2 0x19F0 DUP2 PUSH2 0x1969 JUMP JUMPDEST PUSH2 0x19FD PUSH1 0x40 DUP8 ADD DUP3 PUSH2 0x1111 JUMP JUMPDEST POP PUSH1 0x3 DUP5 ADD SLOAD SWAP1 POP PUSH2 0x1A0E DUP2 PUSH2 0x198D JUMP JUMPDEST PUSH2 0x1A1B PUSH1 0x60 DUP8 ADD DUP3 PUSH2 0x1120 JUMP JUMPDEST POP PUSH1 0x4 DUP5 ADD SLOAD SWAP1 POP PUSH2 0x1A2C DUP2 PUSH2 0x198D JUMP JUMPDEST PUSH2 0x1A39 PUSH1 0x80 DUP8 ADD DUP3 PUSH2 0x1120 JUMP JUMPDEST POP PUSH1 0x5 DUP5 ADD SLOAD SWAP1 POP PUSH2 0x1A4A DUP2 PUSH2 0x198D JUMP JUMPDEST PUSH2 0x1A57 PUSH1 0xA0 DUP8 ADD DUP3 PUSH2 0x1120 JUMP JUMPDEST POP DUP2 SWAP3 POP POP POP SWAP3 SWAP2 POP POP JUMP JUMPDEST PUSH1 0x0 PUSH1 0x60 DUP3 ADD SWAP1 POP DUP2 DUP2 SUB PUSH1 0x0 DUP4 ADD MSTORE PUSH2 0x1A7D DUP2 DUP7 PUSH2 0x19A7 JUMP JUMPDEST SWAP1 POP PUSH2 0x1A8C PUSH1 0x20 DUP4 ADD DUP6 PUSH2 0xE1A JUMP JUMPDEST PUSH2 0x1A99 PUSH1 0x40 DUP4 ADD DUP5 PUSH2 0xE1A JUMP JUMPDEST SWAP5 SWAP4 POP POP POP POP JUMP JUMPDEST PUSH32 0x446F6E6174696F6E20616D6F756E74206D757374206265206772656174657220 PUSH1 0x0 DUP3 ADD MSTORE PUSH32 0x7468616E207A65726F0000000000000000000000000000000000000000000000 PUSH1 0x20 DUP3 ADD MSTORE POP JUMP JUMPDEST PUSH1 0x0 PUSH2 0x1AFD PUSH1 0x29 DUP4 PUSH2 0xD54 JUMP JUMPDEST SWAP2 POP PUSH2 0x1B08 DUP3 PUSH2 0x1AA1 JUMP JUMPDEST PUSH1 0x40 DUP3 ADD SWAP1 POP SWAP2 SWAP1 POP JUMP JUMPDEST PUSH1 0x0 PUSH1 0x20 DUP3 ADD SWAP1 POP DUP2 DUP2 SUB PUSH1 0x0 DUP4 ADD MSTORE PUSH2 0x1B2C DUP2 PUSH2 0x1AF0 JUMP JUMPDEST SWAP1 POP SWAP2 SWAP1 POP JUMP JUMPDEST PUSH32 0x43616D706169676E2068617320616C726561647920656E646564000000000000 PUSH1 0x0 DUP3 ADD MSTORE POP JUMP JUMPDEST PUSH1 0x0 PUSH2 0x1B69 PUSH1 0x1A DUP4 PUSH2 0xD54 JUMP JUMPDEST SWAP2 POP PUSH2 0x1B74 DUP3 PUSH2 0x1B33 JUMP JUMPDEST PUSH1 0x20 DUP3 ADD SWAP1 POP SWAP2 SWAP1 POP JUMP JUMPDEST PUSH1 0x0 PUSH1 0x20 DUP3 ADD SWAP1 POP DUP2 DUP2 SUB PUSH1 0x0 DUP4 ADD MSTORE PUSH2 0x1B98 DUP2 PUSH2 0x1B5C JUMP JUMPDEST SWAP1 POP SWAP2 SWAP1 POP JUMP JUMPDEST PUSH1 0x0 PUSH1 0x40 DUP3 ADD SWAP1 POP PUSH2 0x1BB4 PUSH1 0x0 DUP4 ADD DUP6 PUSH2 0xE1A JUMP JUMPDEST PUSH2 0x1BC1 PUSH1 0x20 DUP4 ADD DUP5 PUSH2 0xE1A JUMP JUMPDEST SWAP4 SWAP3 POP POP POP JUMP INVALID LOG2 PUSH5 0x6970667358 0x22 SLT KECCAK256 0xE7 CALL 0xBE EXP ADDMOD 0x2F 0xB8 CALLVALUE DUP5 PUSH31 0xE07B319EA92965612513F40532926BE79CA7E64DC52964736F6C6343000818 STOP CALLER "
        },
        "methodIdentifiers": {
          "campaigns(uint256)": "141961bc",
          "campaingnsIds(uint256)": "fd34961d",
          "createCampaign(string,string,address,uint256,uint256)": "9304d124",
          "donate(uint256)": "f14faf6f",
          "endCampaign(uint256)": "dd0408ae",
          "owner()": "8da5cb5b",
          "withdrawLeftoverFunds()": "2bd71681"
        }
      }
    }
  }
}